S0120000546163686F6D657465722E7372656306
S11300000C941A010C9437010C9437010C943701A9
S11300100C9437010C9437010C9437010C9437017C
S11300200C9458010C9437010C9437010C9437014B
S11300300C9437010C9437010C9437010C9437015C
S11300400C9437010C9437010C9439010C9437014A
S11300500C943701000000000000005F000000075E
S1130060000700147F147F14242A7F2A1223130804
S1130070646236495620500807030000001C2241E0
S1130080000041221C0014083E081408083E080819
S113009000B0700000080808080800606000002034
S11300A0100804023E5149453E00427F4000724917
S11300B04949462141494D331814127F10274545BB
S11300C045393C4A494931412111090736494949D1
S11300D036464949291E000014000000403400003F
S11300E008142241001414141414412214080002A8
S11300F0015909063E415D594E7C1211127C7F491B
S11301004949363E414141227F4141413E7F49496F
S113011049497F090909093E414151737F0808088B
S11301207F00417F41002040413F017F081422416C
S11301307F404040407F020C027F7F0408107F3ED6
S11301404141413E7F090909063E4151215E7F0933
S1130150192946264949493201017F01013F40409E
S1130160403F1F2040201F3F4038403F6314081485
S11301706303047804036151494543007F4141000E
S113018002040810200041417F00040201020440DF
S113019040404040070B00000020545478407F2822
S11301A04444383844444428384444287F38545418
S11301B0541800087E090218A4A49C787F0804043B
S11301C07800447D40002040403D007F10284400DA
S11301D000417F40007C047804787C08040478386B
S11301E044444438FC1824241818242418FC7C089B
S11301F0040408485454542404043F44243C404018
S1130200207C1C2040201C3C4030403C44281028CA
S1130210444C9090907C4464544C44000836410013
S113022000007700000041360800040204080400BE
S11302307F417F0011241FBECFE5D4E0DEBFCDBFD8
S113024010E0A0E6B0E0EAE9FDE002C005900D92FE
S1130250A438B107D9F720E0A4E8B0E001C01D92AA
S1130260A938B207E1F70E947D010C94CB060C94E7
S113027000001F920F920FB60F9211248F939F9339
S11302808CB59DB5909387008093860080918400FF
S1130290809385001DBC1CBC1092840088B78460C8
S11302A088BF9F918F910F900FBE0F901F9018954C
S11302B01F920F920FB60F9211248F938091840096
S11302C08F5F809384008F910F900FBE0F901F90CB
S11302D018951FBC83E08EBD89B7846089BF0895DB
S11302E087B38B7F87BB88B3846088BB84B78F7BDD
S11302F084BF8BB780628BBF08950E9470010E94F7
S113030069017894F8948091860090918700C09058
S113031085007894D12CE12CF12C7601DD24CC24B9
S1130320C80ED91EE11CF11CA5EDB4E1A70196018C
S11303300E94A9039B01AC016CE370E080E090E0B3
S11303400E948703CA01B90120EA36E841E050E07F
S11303500E948703C22FD32F0E943B02DF93CF93C7
S113036085E690E09F938F930E94BA02FF92EF92EA
S1130370DF92CF928DE690E09F938F9381E08F93ED
S11303801F920E94E40280918600909187009F93BF
S11303908F9389E790E09F938F9382E08F931F92CE
S11303A00E94E4022FEF8EE994E2215080409040B5
S11303B0E1F700C000008DB79EB742960FB6F894DF
S11303C09EBF0FBE8DBF9ECF0F931F93CF93DF931E
S11303D0082FD62FE62FF0E06091630070E080E4F0
S11303E090E00E947303162F262F372FE217F3078E
S11303F0ECF5E02FF0E0A0E6B0E01296CC91129775
S113040014964C91642F70E06C0F711D80E890E09D
S11304100E947303E617F7074CF54C0F409FC02D5D
S1130420112480918800D80F8D2F90E082179307B4
S11304300CF0D11B88E70E945E0380E80E94280329
S11304408D2F806B0E94280380E80E9428038C2F44
S11304508F700E94280380E80E9428038C2F8295C5
S11304608F7080610E9428030E940F03DF91CF9157
S11304701F910F910895CF93DF93D0E015C06D2F96
S113048080E00E94E40188E70E945E0380E40E9409
S11304902803C0E004C080E00E942803CF5FCC237F
S11304A0D4F70E940F03DF5FD83048F360E080E0A8
S11304B00E94E401DF91CF910895EF92FF921F9380
S11304C0CF93DF9320916000821728F09091610010
S11304D0981718F003C0822F01C0822F90E0821B6E
S11304E0910920916200289FE001299FD00D1124D9
S11304F088E70E945E0380E40E94280310E00CC099
S11305007E018FEFE81AF80AFE01EC5AFF4F84913E
S11305100E9428031F5FE70180916200181780F38F
S1130520C0E004C080E00E942803CF5F8091640093
S1130530C817C0F30E940F03DF91CF911F91FF9062
S1130540EF900895CF93DF93EC0103C021960E94AE
S11305505D0288818111FACFDF91CF910895CF9305
S1130560DF93EA010E94E401CE010E94A202DF911E
S1130570CF9108951F93CF93DF93CDB7DEB76997DB
S11305800FB6F894DEBF0FBECDBF9E01215E3F4F74
S1130590F901419151919F0169E170E0CE01019609
S11305A00E94D703182F882324F0CE0101960E94BD
S11305B0A202812F69960FB6F894DEBF0FBECDBF9D
S11305C0DF91CF911F9108951F93CF93DF93CDB700
S11305D0DEB769970FB6F894DEBF0FBECDBF9E019C
S11305E02D5D3F4F49A15AA169E170E0CE0101960A
S11305F00E94D703182F88233CF0AE014F5F5F4F52
S113060068A18F8D0E94AF02812F69960FB6F8946E
S1130610DEBF0FBECDBFDF91CF911F91089588B388
S11306208D7F88BB87B3816087BB87B3826087BBBC
S113063086E08A95F1F788B3816088BB86E08A9565
S1130640F1F787B38D7F87BB86E08A95F1F708952C
S113065098B39D7F98BB97B3916097BB20E017C078
S1130660882324F497B39D7F97BB03C097B392600C
S113067097BB880F93E09A95F1F798B3916098BB74
S113068096E09A95F1F798B39E7F98BB2F5F283038
S113069038F387B38D7F87BB83E08A95F1F788B3FE
S11306A0816088BB93E09A95F1F7B19902C081E02B
S11306B001C080E098B39E7F98BB089598B39D7F56
S11306C098BB97B3916097BB97B3926097BB96E042
S11306D09A95F1F798B39E7F98BB96E09A95F1F7B7
S11306E00E942803089597FB072E16F4009407D060
S11306F077FD09D00E94B40307FC05D03EF4909521
S113070081959F4F0895709561957F4F0895A1E25B
S11307101A2EAA1BBB1BFD010DC0AA1FBB1FEE1F77
S1130720FF1FA217B307E407F50720F0A21BB30BC2
S1130730E40BF50B661F771F881F991F1A9469F73E
S113074060957095809590959B01AC01BD01CF019A
S113075008950E94C803A59F900DB49F900DA49F77
S1130760800D911D11240895AA1BBB1B51E107C0E4
S1130770AA1FBB1FA617B70710F0A61BB70B881F2D
S1130780991F5A95A9F780959095BC01CD010895BC
S1130790A29FB001B39FC001A39F700D811D1124BE
S11307A0911DB29F700D811D1124911D0895AEE01D
S11307B0B0E0EDEDF3E00C94A2068C01FA0186E0C2
S11307C08C831A83098377FF02C060E070E8CB0151
S11307D001979E838D83A901BF01CE0101960E94DA
S11307E003044D815E8157FD0AC02F81388542176D
S11307F053070CF49A01F801E20FF31F10822E96AE
S1130800E4E00C94BE06ABE0B0E0E9E0F4E00C9464
S113081094066C017B018A01FC0117821682838194
S113082081FFCCC1CE0101963C01F6019381F70111
S113083093FD859193FF81917F01882309F4BAC1C7
S1130840853239F493FD859193FF81917F0185323F
S113085029F4B60190E00E94FA05E7CF912C212CEF
S1130860312CFFE1F315D8F08B3279F038F4803273
S113087079F08332A1F4232D20611DC08D3261F003
S1130880803369F4232D216016C0832D8260382EB5
S1130890E32DE4603E2E2AC0F32DF8601DC037FC22
S11308A02DC020ED280F2A3040F08E32B9F436FCEA
S11308B081C1232D2064322E19C036FE06C08AE081
S11308C0989E200D1124922E11C0EAE02E9E200D38
S11308D01124222EF32DF0623F2E08C08C3621F411
S11308E0832D8068382E02C0883641F4F70193FDC9
S11308F0859193FF81917F018111B3CF982F9F7DC3
S11309009554933028F40C5F1F4F9FE399830DC0D7
S1130910833631F0833771F0833509F059C021C033
S1130920F801808189830E5F1F4F88248394912C62
S1130930530113C02801F2E04F0E511CF801A080AE
S1130940B18036FE03C0692D70E002C06FEF7FEF07
S1130950C5010E94EF054C018201F32DFF773F2E64
S113096016C0280122E0420E511CF801A080B1807B
S113097036FE03C0692D70E002C06FEF7FEFC50142
S11309800E94E4054C01F32DF0683F2E820133FCF4
S11309901BC0822D90E088169906B0F4B60180E25F
S11309A090E00E94FA052A94F4CFF50137FC859172
S11309B037FE81915F01B60190E00E94FA05211093
S11309C02A9421E0821A91088114910471F7E8C0F5
S11309D0843611F0893641F5F80137FE07C060818D
S11309E07181828193810C5F1F4F08C06081718186
S11309F0072E000C880B990B0E5F1F4FF32DFF760B
S1130A003F2E97FF09C090958095709561957F4F13
S1130A108F4F9F4FF0683F2E2AE030E0A3010E94E1
S1130A203606882E861845C0853731F4232D2F7E4F
S1130A30B22E2AE030E025C0932D997FB92E8F364F
S1130A40C1F018F4883579F0B5C0803719F08837CB
S1130A5021F0B0C0E92FE061BE2EB4FE0DC0FB2D25
S1130A60F460BF2E09C034FE0AC0292F2660B22EBE
S1130A7006C028E030E005C020E130E002C020E1FB
S1130A8032E0F801B7FE07C06081718182819381F1
S1130A900C5F1F4F06C06081718180E090E00E5FA3
S1130AA01F4FA3010E943606882E8618FB2DFF7760
S1130AB03F2E36FE0DC0232D2E7FA22E891458F40E
S1130AC034FE0BC032FC09C0832D8E7EA82E05C0D7
S1130AD0B82CA32C03C0B82C01C0B92CA4FE0FC0A1
S1130AE0FE01E80DF11D8081803321F49A2D997E59
S1130AF0A92E09C0A2FE06C0B394B39404C08A2DE3
S1130B00867809F0B394A3FC11C0A0FE06C0B21409
S1130B1088F4280C922C9B180EC0B21460F4B60111
S1130B2080E290E00E94FA05B394F7CFB21418F46F
S1130B302B1802C0982C212CA4FE10C0B60180E30F
S1130B4090E00E94FA05A2FE17C0A1FC03C088E74A
S1130B5090E002C088E590E0B6010CC08A2D86784A
S1130B6059F0A1FE02C08BE201C080E2A7FC8DE235
S1130B70B60190E00E94FA05891438F4B60180E3C6
S1130B8090E00E94FA059A94F7CF8A94F301E80D55
S1130B90F11D8081B60190E00E94FA058110F5CF25
S1130BA0222009F442CEB60180E290E00E94FA05C8
S1130BB02A94F6CFF6018681978102C08FEF9FEFCA
S1130BC02B96E2E10C94B006FC0105906150704054
S1130BD00110D8F7809590958E0F9F1F0895FC0102
S1130BE06150704001900110D8F7809590958E0F58
S1130BF09F1F08950F931F93CF93DF93FB012381CE
S1130C0021FD03C08FEF9FEF2CC022FF16C0468149
S1130C105781248135814217530744F4A081B1815F
S1130C209D012F5F3F4F318320838C932681378131
S1130C302F5F3F4F3783268314C08B01EC01FB01E8
S1130C400084F185E02D0995892BE1F6D8011696EB
S1130C508D919C911797019617969C938E93169756
S1130C60CE01DF91CF911F910F910895FA01AA2728
S1130C70283051F1203181F1E8946F936E7F6E5FDB
S1130C807F4F8F4F9F4FAF4FB1E03ED0B4E03CD089
S1130C90670F781F891F9A1FA11D680F791F8A1F6C
S1130CA0911DA11D6A0F711D811D911DA11D20D0D3
S1130CB009F468943F912AE0269F11243019305D8D
S1130CC03193DEF6CF010895462F4770405D41937E
S1130CD0B3E00FD0C9F7F6CF462F4F70405D4A33CB
S1130CE018F0495D31FD4052419302D0A9F7EACF93
S1130CF0B4E0A6959795879577956795BA95C9F7C2
S1130D0000976105710508959B01AC010A2E0694B4
S1130D105795479537952795BA95C9F7620F731F6D
S1130D20841F951FA01D08952F923F924F925F92AA
S1130D306F927F928F929F92AF92BF92CF92DF92E7
S1130D40EF92FF920F931F93CF93DF93CDB7DEB74C
S1130D50CA1BDB0B0FB6F894DEBF0FBECDBF0994E0
S1130D602A88398848885F846E847D848C849B8437
S1130D70AA84B984C884DF80EE80FD800C811B8145
S1130D80AA81B981CE0FD11D0FB6F894DEBF0FBE74
S10D0D90CDBFED010895F894FFCFE4
S1130D9A207F05080252504D3A20257500656C6182
S1130DAA707365643A20257500636F756E743A2012
S1070DBA2575000097
S9030000FC
