S01300004261745F6D6561737572652E73726563A9
S11300000C942A000C943F000C943F000C943F0085
S11300100C943F000C943F000C943F000C943F0060
S11300200C943F000C943F000C943F000C943F0050
S11300300C943F000C943F000C943F000C943F0040
S11300400C943F000C943F000C943F000C943F0030
S11300500C943F0011241FBECFE5D4E0DEBFCDBF1A
S113006010E0A0E6B0E0EAECF1E002C005900D92E9
S1130070AC36B107D9F70E94D1000C94E3000C947C
S113008000008BB380618BBB84E18A95F1F78BB35D
S11300908F7E8BBB84E18A95F1F7089598B39B71A9
S11300A098BB88231CF498B3906898BB86FF03C060
S11300B098B3906498BB85FF03C098B3906298BBD3
S11300C084FF03C088B3846088BB0E944100089504
S11300D0CF93C82F8BB38F7B8BBB8C2F0E944E008A
S11300E08C2F8295807F0E944E0084E98A95F1F7D7
S11300F0CF910895CF93C82F8BB380648BBB8C2F83
S11301000E944E008C2F8295807F0E944E0084E9CD
S11301108A95F1F7CF910895CF93DF93EC0103C053
S11301200E947A00219688818111FACFDF91CF91C4
S1130130089581E00E9468008FE697E10197F1F746
S113014000C0000008958AB380658ABB87B3846EBB
S113015087BB8BB38F7A8BBB88B38B7188BB8FE2E1
S113016095E70197F1F700C0000080E20E944E007D
S113017094E99A95F1F788E20E9468008CE00E9465
S1130180680086E00E9468000E949900089582E059
S11301900E9468008FE697E10197F1F700C0000024
S11301A008950E94A3000E94C70080E690E00E9488
S11301B08C002FEF8EE994E2215080409040E1F7CB
S10D01C000C00000F0CFF894FFCF58
S10F01CA5370616E6E756E673A20000081
S9030000FC
