S01300004261745F6D6561737572652E73726563A9
S11300000C941A010C9437010C9437010C943701A9
S11300100C9437010C9437010C9437010C9437017C
S11300200C9437010C9437010C9437010C9437016C
S11300300C9437010C9437010C9437010C9437015C
S11300400C9437010C9437010C9437010C9437014C
S11300500C943701000000000000005F000000075E
S1130060000700147F147F14242A7F2A1223130804
S1130070646236495620500807030000001C2241E0
S1130080000041221C0014083E081408083E080819
S113009000B0700000080808080800606000002034
S11300A0100804023E5149453E00427F4000724917
S11300B04949462141494D331814127F10274545BB
S11300C045393C4A494931412111090736494949D1
S11300D036464949291E000014000000403400003F
S11300E008142241001414141414412214080002A8
S11300F0015909063E415D594E7C1211127C7F491B
S11301004949363E414141227F4141413E7F49496F
S113011049497F090909093E414151737F0808088B
S11301207F00417F41002040413F017F081422416C
S11301307F404040407F020C027F7F0408107F3ED6
S11301404141413E7F090909063E4151215E7F0933
S1130150192946264949493201017F01013F40409E
S1130160403F1F2040201F3F4038403F6314081485
S11301706303047804036151494543007F4141000E
S113018002040810200041417F00040201020440DF
S113019040404040070B00000020545478407F2822
S11301A04444383844444428384444287F38545418
S11301B0541800087E090218A4A49C787F0804043B
S11301C07800447D40002040403D007F10284400DA
S11301D000417F40007C047804787C08040478386B
S11301E044444438FC1824241818242418FC7C089B
S11301F0040408485454542404043F44243C404018
S1130200207C1C2040201C3C4030403C44281028CA
S1130210444C9090907C4464544C44000836410013
S113022000007700000041360800040204080400BE
S11302307F417F0011241FBECFE5D4E0DEBFCDBFD8
S113024010E0A0E6B0E0E0EAFDE002C005900D9207
S1130250A238B107D9F720E0A2E8B0E001C01D92AE
S1130260A338B207E1F70E945F010C94CE060C9408
S1130270000080E687B986E086B9089527B18370C7
S113028090E0880F991F880F991F880F991F277E68
S1130290822B87B9089597B1987F8770892B87B986
S11302A0089586B1806C86B901C000003699FDCFEF
S11302B024B185B190E0982F8827822B08950E945D
S11302C030020E94390180E00E943E0180E00E94D9
S11302D04B0110E00E945101EC018F39924008F06B
S11302E014E1CD3F82E0D80708F018E2CB3093E068
S11302F0D90708F01CE3CA3123E0D20708F010E55F
S1130300C83383E0D80708F014E60E940E0222E303
S11303102C9FC0012D9F900D1124892F86958695C1
S11303201F928F9385E690E09F938F931F921F9265
S11303300E9416031F921F9382E790E09F938F936E
S113034081E08F931F920E9416039FEF2EE984E2AF
S1130350915020408040E1F700C000008DB79EB767
S11303600C960FB6F8949EBF0FBE8DBFB3CF0F93FC
S11303701F93CF93DF93082FD62FE62FF0E06091E1
S1130380630070E080E490E00E94B203162F262FF1
S1130390372FE217F307ECF5E02FF0E0A0E6B0E02A
S11303A01296CC91129714964C91642F70E06C0FB6
S11303B0711D80E890E00E94B203E617F7074CF540
S11303C04C0F409FC02D112480918200D80F8D2F97
S11303D090E0821793070CF0D11B88E70E949D03DD
S11303E080E80E9467038D2F806B0E94670380E87A
S11303F00E9467038C2F8F700E94670380E80E941D
S113040067038C2F82958F7080610E9467030E941E
S11304104E03DF91CF911F910F910895CF93DF93F6
S1130420D0E015C06D2F80E00E94B70188E70E94DC
S11304309D0380E40E946703C0E004C080E00E9442
S11304406703CF5FCC23D4F70E944E03DF5FD8301D
S113045048F360E080E00E94B701DF91CF910895F6
S11304600E94410388E70E949D0380E80E9467037D
S113047088EA0E94670380E80E9467038FE30E9472
S1130480670380E80E94670383ED0E94670380E8A6
S11304900E94670380E00E94670380E80E9467036C
S11304A080E40E94670380E80E94670380EA0E9458
S11304B0670380E80E94670380EC0E94670380E87A
S11304C00E9467038AED0E94670380E80E94670325
S11304D082E10E94670380E80E94670381E80E942A
S11304E0670380E80E9467038FE70E94670380E840
S11304F00E94670384EA0E94670380E80E946703FE
S113050086EA0E94670380E80E94670385ED0E94E3
S1130510670380E80E94670380E80E94670380E81D
S11305200E94670380E20E94670380E80E946703D9
S113053082E00E94670380E80E9467038DE80E94BE
S1130540670380E80E94670384E10E9467030E94B6
S11305504E030E940E0288E70E949D0380E80E94D9
S113056067038FEA0E9467030E944E031092820081
S11305700895EF92FF921F93CF93DF932091600031
S1130580821728F090916100981718F003C0822F09
S113059001C0822F90E0821B910920916200289F64
S11305A0E001299FD00D112488E70E949D0380E477
S11305B00E94670310E00CC07E018FEFE81AF80A6E
S11305C0FE01EC5AFF4F84910E9467031F5FE7010D
S11305D080916200181780F3C0E004C080E00E949C
S11305E06703CF5F80916400C817C0F30E944E0375
S11305F0DF91CF911F91FF90EF900895CF93DF93F8
S1130600EC0103C021960E94B90288818111FACFBE
S1130610DF91CF910895CF93DF93EA010E94B70150
S1130620CE010E94FE02DF91CF9108951F93CF93D4
S1130630DF93CDB7DEB769970FB6F894DEBF0FBE70
S1130640CDBF9E012D5D3F4F49A15AA169E170E0E4
S1130650CE0101960E94DA03182F88233CF0AE01E4
S11306604F5F5F4F68A18F8D0E940B03812F6996A6
S11306700FB6F894DEBF0FBECDBFDF91CF911F91AF
S1130680089587B38D7F87BB88B38D7F88BB88B37C
S1130690816088BB87B3816087BB089588B38D7FF1
S11306A088BB87B3816087BB87B3826087BB86E0E2
S11306B08A95F1F788B3816088BB86E08A95F1F763
S11306C087B38D7F87BB86E08A95F1F7089598B349
S11306D09D7F98BB97B3916097BB20E017C0882398
S11306E024F497B39D7F97BB03C097B3926097BBE5
S11306F0880F93E09A95F1F798B3916098BB96E0D0
S11307009A95F1F798B39E7F98BB2F5F283038F302
S113071087B38D7F87BB83E08A95F1F788B38160C7
S113072088BB93E09A95F1F7B19902C081E001C0CA
S113073080E098B39E7F98BB089598B39D7F98BB43
S113074097B3916097BB97B3926097BB96E09A95E5
S1130750F1F798B39E7F98BB96E09A95F1F70E94C3
S11307606703089597FB072E16F4009407D077FDCE
S113077009D00E94C60307FC05D03EF490958195EC
S11307809F4F0895709561957F4F0895AA1BBB1BD9
S113079051E107C0AA1FBB1FA617B70710F0A61B7D
S11307A0B70B881F991F5A95A9F780959095BC019E
S11307B0CD010895AEE0B0E0E0EEF3E00C94A506C0
S11307C08C01FA0186E08C831A83098377FF02C0C7
S11307D060E070E8CB0101979E838D83A901BF017E
S11307E0CE0101960E9406044D815E8157FD0AC028
S11307F02F813885421753070CF49A01F801E20F50
S1130800F31F10822E96E4E00C94C106ABE0B0E036
S1130810ECE0F4E00C9497066C017B018A01FC0186
S113082017821682838181FFCCC1CE0101963C01DF
S1130830F6019381F70193FD859193FF81917F01E7
S1130840882309F4BAC1853239F493FD859193FF65
S113085081917F01853229F4B60190E00E94FD0563
S1130860E7CF912C212C312CFFE1F315D8F08B32FA
S113087079F038F4803279F08332A1F4232D2061A9
S11308801DC08D3261F0803369F4232D216016C0C0
S1130890832D8260382EE32DE4603E2E2AC0F32D92
S11308A0F8601DC037FC2DC020ED280F2A3040F021
S11308B08E32B9F436FC81C1232D2064322E19C046
S11308C036FE06C08AE0989E200D1124922E11C097
S11308D0EAE02E9E200D1124222EF32DF0623F2EED
S11308E008C08C3621F4832D8068382E02C08836E7
S11308F041F4F70193FD859193FF81917F0181116B
S1130900B3CF982F9F7D9554933028F40C5F1F4FDD
S11309109FE399830DC0833631F0833771F08335BB
S113092009F059C021C0F801808189830E5F1F4FEF
S113093088248394912C530113C02801F2E04F0EB4
S1130940511CF801A080B18036FE03C0692D70E00F
S113095002C06FEF7FEFC5010E94F2054C018201D6
S1130960F32DFF773F2E16C0280122E0420E511CC2
S1130970F801A080B18036FE03C0692D70E002C08A
S11309806FEF7FEFC5010E94E7054C01F32DF0687E
S11309903F2E820133FC1BC0822D90E088169906FD
S11309A0B0F4B60180E290E00E94FD052A94F4CFF1
S11309B0F50137FC859137FE81915F01B60190E026
S11309C00E94FD0521102A9421E0821A91088114C5
S11309D0910471F7E8C0843611F0893641F5F801C5
S11309E037FE07C060817181828193810C5F1F4F44
S11309F008C060817181072E000C880B990B0E5F73
S1130A001F4FF32DFF763F2E97FF09C090958095D9
S1130A10709561957F4F8F4F9F4FF0683F2E2AE06E
S1130A2030E0A3010E943906882E861845C0853718
S1130A3031F4232D2F7EB22E2AE030E025C0932DF1
S1130A40997FB92E8F36C1F018F4883579F0B5C086
S1130A50803719F0883721F0B0C0E92FE061BE2E4D
S1130A60B4FE0DC0FB2DF460BF2E09C034FE0AC0D5
S1130A70292F2660B22E06C028E030E005C020E110
S1130A8030E002C020E132E0F801B7FE07C0608127
S1130A907181828193810C5F1F4F06C060817181D7
S1130AA080E090E00E5F1F4FA3010E943906882E5C
S1130AB08618FB2DFF773F2E36FE0DC0232D2E7F8B
S1130AC0A22E891458F434FE0BC032FC09C0832DC5
S1130AD08E7EA82E05C0B82CA32C03C0B82C01C050
S1130AE0B92CA4FE0FC0FE01E80DF11D80818033F6
S1130AF021F49A2D997EA92E09C0A2FE06C0B394B2
S1130B00B39404C08A2D867809F0B394A3FC11C071
S1130B10A0FE06C0B21488F4280C922C9B180EC0B8
S1130B20B21460F4B60180E290E00E94FD05B39433
S1130B30F7CFB21418F42B1802C0982C212CA4FE61
S1130B4010C0B60180E390E00E94FD05A2FE17C02C
S1130B50A1FC03C088E790E002C088E590E0B601FC
S1130B600CC08A2D867859F0A1FE02C08BE201C028
S1130B7080E2A7FC8DE2B60190E00E94FD05891495
S1130B8038F4B60180E390E00E94FD059A94F7CF13
S1130B908A94F301E80DF11D8081B60190E00E9472
S1130BA0FD058110F5CF222009F442CEB60180E282
S1130BB090E00E94FD052A94F6CFF6018681978184
S1130BC002C08FEF9FEF2B96E2E10C94B306FC0179
S1130BD00590615070400110D8F7809590958E0F64
S1130BE09F1F0895FC016150704001900110D8F7D7
S1130BF0809590958E0F9F1F08950F931F93CF9309
S1130C00DF93FB01238121FD03C08FEF9FEF2CC0F5
S1130C1022FF16C04681578124813581421753072C
S1130C2044F4A081B1819D012F5F3F4F3183208324
S1130C308C93268137812F5F3F4F3783268314C0DF
S1130C408B01EC01FB010084F185E02D0995892BD2
S1130C50E1F6D80116968D919C91179701961796F7
S1130C609C938E931697CE01DF91CF911F910F9194
S1130C700895FA01AA27283051F1203181F1E8942E
S1130C806F936E7F6E5F7F4F8F4F9F4FAF4FB1E07B
S1130C903ED0B4E03CD0670F781F891F9A1FA11D76
S1130CA0680F791F8A1F911DA11D6A0F711D811D77
S1130CB0911DA11D20D009F468943F912AE0269F3C
S1130CC011243019305D3193DEF6CF010895462F9B
S1130CD04770405D4193B3E00FD0C9F7F6CF462F7C
S1130CE04F70405D4A3318F0495D31FD40524193E5
S1130CF002D0A9F7EACFB4E0A695979587957795A2
S1130D006795BA95C9F700976105710508959B0128
S1130D10AC010A2E06945795479537952795BA95B1
S1130D20C9F7620F731F841F951FA01D08952F928A
S1130D303F924F925F926F927F928F929F92AF9267
S1130D40BF92CF92DF92EF92FF920F931F93CF93B4
S1130D50DF93CDB7DEB7CA1BDB0B0FB6F894DEBF4B
S1130D600FBECDBF09942A88398848885F846E8471
S1130D707D848C849B84AA84B984C884DF80EE80BB
S1130D80FD800C811B81AA81B981CE0FD11D0FB6C4
S1130D90F894DEBF0FBECDBFED010895F894FFCFE8
S1130DA0207F0508025370616E6E756E673A2025C8
S1130DB0750042617474657269653A202575202551
S1050DC0250008
S9030000FC
