S01800005379735F536F6674776172655F7630312E73726563ED
S11300000C941A010C9437010C9437010C943701A9
S11300100C9437010C9437010C9437010C9437017C
S11300200C941E020C9437010C9437010C94370184
S11300300C9437010C9437010C9437010C9437015C
S11300400C9437010C9437010C94FF010C94370184
S11300500C943701000000000000005F000000075E
S1130060000700147F147F14242A7F2A1223130804
S1130070646236495620500807030000001C2241E0
S1130080000041221C0014083E081408083E080819
S113009000B0700000080808080800606000002034
S11300A0100804023E5149453E00427F4000724917
S11300B04949462141494D331814127F10274545BB
S11300C045393C4A494931412111090736494949D1
S11300D036464949291E000014000000403400003F
S11300E008142241001414141414412214080002A8
S11300F0015909063E415D594E7C1211127C7F491B
S11301004949363E414141227F4141413E7F49496F
S113011049497F090909093E414151737F0808088B
S11301207F00417F41002040413F017F081422416C
S11301307F404040407F020C027F7F0408107F3ED6
S11301404141413E7F090909063E4151215E7F0933
S1130150192946264949493201017F01013F40409E
S1130160403F1F2040201F3F4038403F6314081485
S11301706303047804036151494543007F4141000E
S113018002040810200041417F00040201020440DF
S113019040404040070B00000020545478407F2822
S11301A04444383844444428384444287F38545418
S11301B0541800087E090218A4A49C787F0804043B
S11301C07800447D40002040403D007F10284400DA
S11301D000417F40007C047804787C08040478386B
S11301E044444438FC1824241818242418FC7C089B
S11301F0040408485454542404043F44243C404018
S1130200207C1C2040201C3C4030403C44281028CA
S1130210444C9090907C4464544C44000836410013
S113022000007700000041360800040204080400BE
S11302307F417F0011241FBECFE5D4E0DEBFCDBFD8
S113024010E0A0E6B0E0E4ECF2E102C005900D920B
S1130250A839B107D9F720E0A8E9B0E001C01D92A0
S1130260AD39B207E1F70E9440020C9460090C9486
S1130270000080E687B986E086B9089527B18370C7
S113028090E0880F991F880F991F880F991F277E68
S1130290822B87B9089597B1987F8770892B87B986
S11302A0089586B1806C86B901C000003699FDCFEF
S11302B024B185B190E0982F8827822B08958BB3C1
S11302C08E7F8BBB8AB381608ABB8FE995E00197EF
S11302D0F1F700C000008AB38E7F8ABB90EF9A9535
S11302E0F1F789B38170EBEEF4E03197F1F700C0D8
S11302F0000008959BB39E7F9BBB9AB391609ABB09
S113030094E09A95F1F7882319F08AB38E7F8ABB1B
S113031080EF8A95F1F78AB38E7F8ABB08958BB3F9
S11303208E7F8BBB8AB381608ABB84E08A95F1F7A8
S11303308AB38E7F8ABB98E39A95F1F7C89902C075
S113034080E001C081E094EB9A95F1F70895CF9392
S1130350DF93C82F88E006C08C2F81700E947A0139
S1130360C6958D2FDFEFD80F8111F6CFDF91CF9196
S11303700895CF93DF9380E098E00AC0C82FC69514
S11303800E948F0120E8829FC00111248C2B9D2F95
S1130390DFEFD90F9111F2CFDF91CF910895CF9371
S11303A0F8940E945F018CEC0E94A70184E40E94EF
S11303B0A7010E948F018823E1F30E945F018CEC66
S11303C00E94A7018EEB0E94A7010E94B901C82FC9
S11303D00E94B9017894682F70E0762F66276C0F1D
S11303E0711D072E000C880B990B0E940F0520E04D
S11303F030E040E85DE30E947305CF9108951F92B9
S11304000F920FB60F9211248F939F938CB59DB5C5
S113041090939B0080939A00809198008093990018
S11304201DBC1CBC1092980088B7846088BF9F9143
S11304308F910F900FBE0F901F9018951F920F92DF
S11304400FB60F9211248F93809198008F5F809341
S113045098008F910F900FBE0F901F9018951FBC9E
S113046083E08EBD89B7846089BF089587B38B7F8D
S113047087BB84B78F7B84BF8BB780628BBF0895A3
S11304800E945C030E9436020E942F020E943901DE
S113049080E00E943E0180E00E944B01789410E0CD
S11304A0F89480919A0090919B00209199007894FF
S11304B0422F50E060E070E0BA01552744279A01CA
S11304C0AB01280F391F411D511DA5EDB4E10E9458
S11304D03E069B01AC016CE370E080E090E00E947A
S11304E01C06CA01B90120EA36E841E050E00E9446
S11304F01C06F22EE32E0E94CF010E94DE04062F7A
S11305000E945101EC018F39924008F014E1CD3F73
S113051082E0D80708F018E2CB3093E0D90708F05E
S11305201CE3CA3123E0D20708F010E5C83383E0A6
S1130530D80708F014E60E943A03EF92FF9285E68A
S113054090E09F938F931F921F920E9442041F92E8
S11305500F938DE690E09F938F9381E08F931F928A
S11305600E94420422E32C9FC0012D9F900D112470
S1130570892F869586951F928F938BE790E09F93A2
S11305808F9382E08F931F920E9442041F921F93C5
S113059088E890E09F938F9383E08F931F920E944B
S11305A042049FEF2EE984E2915020408040E1F71D
S11305B000C000008DB79EB748960FB6F8949EBF52
S11305C00FBE8DBF6DCF0F931F93CF93DF93082F73
S11305D0D62FE62FF0E06091630070E080E490E0B5
S11305E00E940806162F262F372FE217F307ECF583
S11305F0E02FF0E0A0E6B0E01296CC9112971496AA
S11306004C91642F70E06C0F711D80E890E00E94A3
S11306100806E617F7074CF54C0F409FC02D112430
S113062080919C00D80F8D2F90E0821793070CF0D7
S1130630D11B88E70E94C90480E80E9493048D2F8F
S1130640806B0E94930480E80E9493048C2F8F7027
S11306500E94930480E80E9493048C2F82958F70EB
S113066080610E9493040E947A04DF91CF911F91CC
S11306700F910895CF93DF93D0E015C06D2F80E0E4
S11306800E94E30288E70E94C90480E40E94930464
S1130690C0E004C080E00E949304CF5FCC23D4F771
S11306A00E947A04DF5FD83048F360E080E00E9463
S11306B0E302DF91CF9108950E946D0488E70E94C0
S11306C0C90480E80E94930488EA0E94930480E8A5
S11306D00E9493048FE30E94930480E80E94930491
S11306E083ED0E94930480E80E94930480E00E94BA
S11306F0930480E80E94930480E40E94930480E8B9
S11307000E94930480EA0E94930480E80E94930468
S113071080EC0E94930480E80E9493048AED0E9476
S1130720930480E80E94930482E10E94930480E889
S11307300E94930481E80E94930480E80E94930439
S11307408FE70E94930480E80E94930484EA0E9445
S1130750930480E80E94930486EA0E94930480E84C
S11307600E94930485ED0E94930480E80E94930400
S113077080E80E94930480E80E94930480E20E942F
S1130780930480E80E94930482E00E94930480E82A
S11307900E9493048DE80E94930480E80E949304CD
S11307A084E10E9493040E947A040E943A0388E739
S11307B00E94C90480E80E9493048FEA0E94930473
S11307C00E947A0410929C000895EF92FF921F9366
S11307D0CF93DF9320916000821728F090916100FD
S11307E0981718F003C0822F01C0822F90E0821B5B
S11307F0910920916200289FE001299FD00D1124C6
S113080088E70E94C90480E40E94930410E00CC0AD
S11308107E018FEFE81AF80AFE01EC5AFF4F84912B
S11308200E9493041F5FE70180916200181780F310
S1130830C0E004C080E00E949304CF5F8091640014
S1130840C817C0F30E947A04DF91CF911F91FF90E3
S1130850EF900895CF93DF93EC0103C021960E949B
S1130860E50388818111FACFDF91CF910895CF9369
S1130870DF93EA010E94E302CE010E942A04DF9181
S1130880CF9108951F93CF93DF93CDB7DEB76997C8
S11308900FB6F894DEBF0FBECDBF9E012D5D3F4F56
S11308A049A15AA169E170E0CE0101960E946C064B
S11308B0182F88233CF0AE014F5F5F4F68A18F8DE6
S11308C00E943704812F69960FB6F894DEBF0FBEDD
S11308D0CDBFDF91CF911F91089587B38D7F87BBE3
S11308E088B38D7F88BB88B3816088BB87B3816000
S11308F087BB089588B38D7F88BB87B3816087BB2E
S113090087B3826087BB86E08A95F1F788B38160FC
S113091088BB86E08A95F1F787B38D7F87BB86E035
S11309208A95F1F7089598B39D7F98BB97B391602A
S113093097BB20E017C0882324F497B39D7F97BB0F
S113094003C097B3926097BB880F93E09A95F1F731
S113095098B3916098BB96E09A95F1F798B39E7F0F
S113096098BB2F5F283038F387B38D7F87BB83E034
S11309708A95F1F788B3816088BB93E09A95F1F783
S1130980B19902C081E001C080E098B39E7F98BB1A
S1130990089598B39D7F98BB97B3916097BB97B325
S11309A0926097BB96E09A95F1F798B39E7F98BBB7
S11309B096E09A95F1F70E94930408950E945205D7
S11309C088F09F5798F0B92F9927B751B0F0E1F00C
S11309D0660F771F881F991F1AF0BA95C9F714C0BC
S11309E0B13091F00E946C05B1E008950C946C054F
S11309F0672F782F8827B85F39F0B93FCCF38695F5
S1130A0077956795B395D9F73EF490958095709551
S1130A1061957F4F8F4F9F4F0895E89409C097FBCE
S1130A203EF490958095709561957F4F8F4F9F4FC1
S1130A309923A9F0F92F96E9BB279395F695879505
S1130A4077956795B795F111F8CFFAF4BB0F11F4C8
S1130A5060FF1BC06F5F7F4F8F4F9F4F16C088236F
S1130A6011F096E911C0772321F09EE8872F762FA5
S1130A7005C0662371F096E8862F70E060E02AF0E6
S1130A809A95660F771F881FDAF7880F96958795D2
S1130A9097F9089557FD9058440F551F59F05F3F3B
S1130AA071F04795880F97FB991F61F09F3F79F08C
S1130AB087950895121613061406551FF2CF46950E
S1130AC0F1DF08C0161617061806991FF1CF869590
S1130AD07105610508940895E894BB276627772774
S1130AE0CB0197F908950E9486050C94F7050E949E
S1130AF0E90538F00E94F00520F0952311F00C94DC
S1130B00E0050C94E60511240C946D050E944A0539
S1130B1070F3959FC1F3950F50E0551F629FF0014C
S1130B20729FBB27F00DB11D639FAA27F00DB11D65
S1130B30AA1F649F6627B00DA11D661F829F2227EE
S1130B40B00DA11D621F739FB00DA11D621F839F75
S1130B50A00D611D221F749F3327A00D611D231F4B
S1130B60849F600D211D822F762F6A2F11249F5799
S1130B7050409AF0F1F088234AF0EE0FFF1FBB1F9C
S1130B80661F771F881F91505040A9F79E3F51055B
S1130B9080F00C94E0050C946D055F3FE4F3983EFF
S1130BA0D4F3869577956795B795F795E7959F5F05
S1130BB0C1F7FE2B880F911D9695879597F9089597
S1130BC097F99F6780E870E060E008959FEF80ECFC
S1130BD0089500240A94161617061806090608959F
S1130BE000240A9412161306140605060895092E05
S1130BF00394000C11F4882352F0BB0F40F4BF2B74
S1130C0011F460FF04C06F5F7F4F8F4F9F4F0895B3
S1130C1097FB072E16F4009407D077FD09D00E94A5
S1130C20490607FC05D03EF4909581959F4F0895A1
S1130C30709561957F4F0895A1E21A2EAA1BBB1BE4
S1130C40FD010DC0AA1FBB1FEE1FFF1FA217B30794
S1130C50E407F50720F0A21BB30BE40BF50B661FAA
S1130C60771F881F991F1A9469F76095709580956E
S1130C7090959B01AC01BD01CF0108950E945D06D2
S1130C80A59F900DB49F900DA49F800D911D1124DC
S1130C900895AA1BBB1B51E107C0AA1FBB1FA617BF
S1130CA0B70710F0A61BB70B881F991F5A95A9F711
S1130CB080959095BC01CD010895A29FB001B39F8A
S1130CC0C001A39F700D811D1124911DB29F700D51
S1130CD0811D1124911D0895AEE0B0E0E2E7F6E035
S1130CE00C9437098C01FA0186E08C831A830983FA
S1130CF077FF02C060E070E8CB0101979E838D838B
S1130D00A901BF01CE0101960E9498064D815E8122
S1130D1057FD0AC02F813885421753070CF49A01F6
S1130D20F801E20FF31F10822E96E4E00C945309AD
S1130D30ABE0B0E0EEE9F6E00C9429096C017B012C
S1130D408A01FC0117821682838181FFCCC1CE0106
S1130D5001963C01F6019381F70193FD859193FF80
S1130D6081917F01882309F4BAC1853239F493FD56
S1130D70859193FF81917F01853229F4B60190E03A
S1130D800E948F08E7CF912C212C312CFFE1F31521
S1130D90D8F08B3279F038F4803279F08332A1F4D0
S1130DA0232D20611DC08D3261F0803369F4232D21
S1130DB0216016C0832D8260382EE32DE4603E2E20
S1130DC02AC0F32DF8601DC037FC2DC020ED280F7C
S1130DD02A3040F08E32B9F436FC81C1232D2064D0
S1130DE0322E19C036FE06C08AE0989E200D1124CA
S1130DF0922E11C0EAE02E9E200D1124222EF32DF6
S1130E00F0623F2E08C08C3621F4832D8068382E82
S1130E1002C0883641F4F70193FD859193FF8191D7
S1130E207F018111B3CF982F9F7D9554933028F47F
S1130E300C5F1F4F9FE399830DC0833631F08337D6
S1130E4071F0833509F059C021C0F801808189838C
S1130E500E5F1F4F88248394912C530113C02801E3
S1130E60F2E04F0E511CF801A080B18036FE03C0A1
S1130E70692D70E002C06FEF7FEFC5010E94840806
S1130E804C018201F32DFF773F2E16C0280122E08A
S1130E90420E511CF801A080B18036FE03C0692DBA
S1130EA070E002C06FEF7FEFC5010E9479084C012A
S1130EB0F32DF0683F2E820133FC1BC0822D90E09D
S1130EC088169906B0F4B60180E290E00E948F087B
S1130ED02A94F4CFF50137FC859137FE81915F01A7
S1130EE0B60190E00E948F0821102A9421E0821A12
S1130EF091088114910471F7E8C0843611F08936A1
S1130F0041F5F80137FE07C06081718182819381C8
S1130F100C5F1F4F08C060817181072E000C880B85
S1130F20990B0E5F1F4FF32DFF763F2E97FF09C0DD
S1130F3090958095709561957F4F8F4F9F4FF06886
S1130F403F2E2AE030E0A3010E94CB08882E8618A9
S1130F5045C0853731F4232D2F7EB22E2AE030E0B0
S1130F6025C0932D997FB92E8F36C1F018F488359A
S1130F7079F0B5C0803719F0883721F0B0C0E92F77
S1130F80E061BE2EB4FE0DC0FB2DF460BF2E09C07F
S1130F9034FE0AC0292F2660B22E06C028E030E0B5
S1130FA005C020E130E002C020E132E0F801B7FEE4
S1130FB007C060817181828193810C5F1F4F06C0DD
S1130FC06081718180E090E00E5F1F4FA3010E9459
S1130FD0CB08882E8618FB2DFF773F2E36FE0DC0DA
S1130FE0232D2E7FA22E891458F434FE0BC032FC1C
S1130FF009C0832D8E7EA82E05C0B82CA32C03C057
S1131000B82C01C0B92CA4FE0FC0FE01E80DF11DDF
S11310108081803321F49A2D997EA92E09C0A2FEE5
S113102006C0B394B39404C08A2D867809F0B394AF
S1131030A3FC11C0A0FE06C0B21488F4280C922CA4
S11310409B180EC0B21460F4B60180E290E00E94D6
S11310508F08B394F7CFB21418F42B1802C0982C4D
S1131060212CA4FE10C0B60180E390E00E948F08FA
S1131070A2FE17C0A1FC03C088E790E002C088E587
S113108090E0B6010CC08A2D867859F0A1FE02C00A
S11310908BE201C080E2A7FC8DE2B60190E00E94E1
S11310A08F08891438F4B60180E390E00E948F0819
S11310B09A94F7CF8A94F301E80DF11D8081B6016B
S11310C090E00E948F088110F5CF222009F442CECF
S11310D0B60180E290E00E948F082A94F6CFF601D0
S11310E08681978102C08FEF9FEF2B96E2E10C94EB
S11310F04509FC010590615070400110D8F78095B6
S113110090958E0F9F1F0895FC01615070400190CF
S11311100110D8F7809590958E0F9F1F08950F9317
S11311201F93CF93DF93FB01238121FD03C08FEF36
S11311309FEF2CC022FF16C0468157812481358140
S11311404217530744F4A081B1819D012F5F3F4FA3
S1131150318320838C93268137812F5F3F4F3783E0
S1131160268314C08B01EC01FB010084F185E02D82
S11311700995892BE1F6D80116968D919C911797C4
S1131180019617969C938E931697CE01DF91CF917B
S11311901F910F910895FA01AA27283051F12031A7
S11311A081F1E8946F936E7F6E5F7F4F8F4F9F4FF7
S11311B0AF4FB1E03ED0B4E03CD0670F781F891F39
S11311C09A1FA11D680F791F8A1F911DA11D6A0F07
S11311D0711D811D911DA11D20D009F468943F91BA
S11311E02AE0269F11243019305D3193DEF6CF01B9
S11311F00895462F4770405D4193B3E00FD0C9F77F
S1131200F6CF462F4F70405D4A3318F0495D31FDEB
S11312104052419302D0A9F7EACFB4E0A69597953E
S1131220879577956795BA95C9F700976105710514
S113123008959B01AC010A2E06945795479537955E
S11312402795BA95C9F7620F731F841F951FA01DB8
S113125008952F923F924F925F926F927F928F9256
S11312609F92AF92BF92CF92DF92EF92FF920F9331
S11312701F93CF93DF93CDB7DEB7CA1BDB0B0FB63B
S1131280F894DEBF0FBECDBF09942A8839884888F8
S11312905F846E847D848C849B84AA84B984C8848E
S11312A0DF80EE80FD800C811B81AA81B981CE0F85
S11312B0D11D0FB6F894DEBF0FBECDBFED0108956A
S10712C0F894FFCFCC
S11312C4207F05080252504D3A2025750054656D5F
S11312D4706572617475723A2564005370616E6E40
S11312E4756E673A20257500426174746572696588
S10B12F43A2025752025250090
S9030000FC
